{
  "contractName": "DistributedTask",
  "abi": [
    {
      "anonymous": false,
      "inputs": [
        {
          "indexed": false,
          "internalType": "string",
          "name": "taskHash",
          "type": "string"
        },
        {
          "indexed": false,
          "internalType": "string",
          "name": "solutionHash",
          "type": "string"
        },
        {
          "indexed": false,
          "internalType": "address",
          "name": "solver",
          "type": "address"
        }
      ],
      "name": "CommitSolution",
      "type": "event"
    },
    {
      "anonymous": false,
      "inputs": [
        {
          "indexed": false,
          "internalType": "string",
          "name": "taskHash",
          "type": "string"
        },
        {
          "indexed": false,
          "internalType": "uint256",
          "name": "rewardAmount",
          "type": "uint256"
        }
      ],
      "name": "CommitTask",
      "type": "event"
    },
    {
      "anonymous": false,
      "inputs": [
        {
          "indexed": false,
          "internalType": "string",
          "name": "taskHash",
          "type": "string"
        },
        {
          "indexed": false,
          "internalType": "string",
          "name": "validSolutionHash",
          "type": "string"
        },
        {
          "indexed": false,
          "internalType": "address",
          "name": "solver",
          "type": "address"
        }
      ],
      "name": "MarkSolutionAsSolved",
      "type": "event"
    },
    {
      "constant": true,
      "inputs": [],
      "name": "MIN_COLLATERAL",
      "outputs": [
        {
          "internalType": "uint256",
          "name": "",
          "type": "uint256"
        }
      ],
      "payable": false,
      "stateMutability": "view",
      "type": "function"
    },
    {
      "constant": true,
      "inputs": [
        {
          "internalType": "string",
          "name": "",
          "type": "string"
        },
        {
          "internalType": "uint256",
          "name": "",
          "type": "uint256"
        }
      ],
      "name": "solutionMap",
      "outputs": [
        {
          "internalType": "string",
          "name": "taskHash",
          "type": "string"
        },
        {
          "internalType": "string",
          "name": "solutionHash",
          "type": "string"
        },
        {
          "internalType": "address payable",
          "name": "solver",
          "type": "address"
        }
      ],
      "payable": false,
      "stateMutability": "view",
      "type": "function"
    },
    {
      "constant": true,
      "inputs": [
        {
          "internalType": "string",
          "name": "",
          "type": "string"
        }
      ],
      "name": "taskMap",
      "outputs": [
        {
          "internalType": "address",
          "name": "taskInitiator",
          "type": "address"
        },
        {
          "internalType": "string",
          "name": "hash",
          "type": "string"
        },
        {
          "internalType": "uint256",
          "name": "reward",
          "type": "uint256"
        },
        {
          "internalType": "address",
          "name": "solver",
          "type": "address"
        }
      ],
      "payable": false,
      "stateMutability": "view",
      "type": "function"
    },
    {
      "constant": false,
      "inputs": [
        {
          "internalType": "string",
          "name": "taskHash",
          "type": "string"
        }
      ],
      "name": "commitTaskHash",
      "outputs": [],
      "payable": true,
      "stateMutability": "payable",
      "type": "function"
    },
    {
      "constant": false,
      "inputs": [
        {
          "internalType": "string",
          "name": "taskHash",
          "type": "string"
        },
        {
          "internalType": "string",
          "name": "solutionHash",
          "type": "string"
        }
      ],
      "name": "commitSolutionHash",
      "outputs": [],
      "payable": false,
      "stateMutability": "nonpayable",
      "type": "function"
    },
    {
      "constant": false,
      "inputs": [
        {
          "internalType": "string",
          "name": "taskHash",
          "type": "string"
        },
        {
          "internalType": "string",
          "name": "validSolutionHash",
          "type": "string"
        }
      ],
      "name": "markTaskSolved",
      "outputs": [
        {
          "internalType": "bool",
          "name": "",
          "type": "bool"
        }
      ],
      "payable": false,
      "stateMutability": "nonpayable",
      "type": "function"
    },
    {
      "constant": true,
      "inputs": [],
      "name": "retrieveTaskList",
      "outputs": [
        {
          "components": [
            {
              "internalType": "address",
              "name": "taskInitiator",
              "type": "address"
            },
            {
              "internalType": "string",
              "name": "hash",
              "type": "string"
            },
            {
              "internalType": "uint256",
              "name": "reward",
              "type": "uint256"
            },
            {
              "internalType": "address",
              "name": "solver",
              "type": "address"
            }
          ],
          "internalType": "struct DistributedTask.Task[]",
          "name": "",
          "type": "tuple[]"
        }
      ],
      "payable": false,
      "stateMutability": "view",
      "type": "function"
    },
    {
      "constant": true,
      "inputs": [],
      "name": "activeTasks",
      "outputs": [
        {
          "internalType": "uint256",
          "name": "",
          "type": "uint256"
        }
      ],
      "payable": false,
      "stateMutability": "view",
      "type": "function"
    },
    {
      "constant": true,
      "inputs": [
        {
          "internalType": "string",
          "name": "hashStr",
          "type": "string"
        }
      ],
      "name": "retrieveSolutionList",
      "outputs": [
        {
          "components": [
            {
              "internalType": "string",
              "name": "taskHash",
              "type": "string"
            },
            {
              "internalType": "string",
              "name": "solutionHash",
              "type": "string"
            },
            {
              "internalType": "address payable",
              "name": "solver",
              "type": "address"
            }
          ],
          "internalType": "struct DistributedTask.Solution[]",
          "name": "",
          "type": "tuple[]"
        }
      ],
      "payable": false,
      "stateMutability": "view",
      "type": "function"
    }
  ],
  "bytecode": "0x608060405234801561001057600080fd5b50612541806100206000396000f3fe6080604052600436106100865760003560e01c8063d03bbd3811610059578063d03bbd381461013b578063f04bb4ab14610166578063f1128c5b146101a5578063fa779648146101e2578063fc482e401461020d57610086565b80631412aca11461008b5780634171f1b4146100cb578063c23470f7146100f4578063c3712e5214610110575b600080fd5b34801561009757600080fd5b506100b260048036036100ad91908101906119b4565b61024a565b6040516100c29493929190612045565b60405180910390f35b3480156100d757600080fd5b506100f260048036036100ed9190810190611a36565b610368565b005b61010e600480360361010991908101906119f5565b610555565b005b34801561011c57600080fd5b506101256107f5565b60405161013291906120b3565b60405180910390f35b34801561014757600080fd5b50610150610aaf565b60405161015d91906122af565b60405180910390f35b34801561017257600080fd5b5061018d60048036036101889190810190611aa2565b610abc565b60405161019c939291906121aa565b60405180910390f35b3480156101b157600080fd5b506101cc60048036036101c791908101906119f5565b610c66565b6040516101d99190612091565b60405180910390f35b3480156101ee57600080fd5b506101f7610e7d565b60405161020491906122af565b60405180910390f35b34801561021957600080fd5b50610234600480360361022f9190810190611a36565b610e84565b60405161024191906120d5565b60405180910390f35b6000818051602081018201805184825260208301602085012081835280955050505050506000915090508060000160009054906101000a900473ffffffffffffffffffffffffffffffffffffffff1690806001018054600181600116156101000203166002900480601f0160208091040260200160405190810160405280929190818152602001828054600181600116156101000203166002900480156103325780601f1061030757610100808354040283529160200191610332565b820191906000526020600020905b81548152906001019060200180831161031557829003601f168201915b5050505050908060020154908060030160009054906101000a900473ffffffffffffffffffffffffffffffffffffffff16905084565b600073ffffffffffffffffffffffffffffffffffffffff16600083604051610390919061202e565b908152602001604051809103902060030160009054906101000a900473ffffffffffffffffffffffffffffffffffffffff1673ffffffffffffffffffffffffffffffffffffffff1614610418576040517f08c379a000000000000000000000000000000000000000000000000000000000815260040161040f906121ef565b60405180910390fd5b600182604051610428919061202e565b908152602001604051809103902060405180606001604052808481526020018381526020013373ffffffffffffffffffffffffffffffffffffffff168152509080600181540180825580915050906001820390600052602060002090600302016000909192909190915060008201518160000190805190602001906104ae929190611678565b5060208201518160010190805190602001906104cb929190611678565b5060408201518160020160006101000a81548173ffffffffffffffffffffffffffffffffffffffff021916908373ffffffffffffffffffffffffffffffffffffffff1602179055505050507f092828b6dfeac14b33a026ecd307d5d23c7b7ddb01134cf980954b3f3e27f4d582823360405161054993929190612135565b60405180910390a15050565b6298968034101561059b576040517f08c379a00000000000000000000000000000000000000000000000000000000081526004016105929061220f565b60405180910390fd5b600080826040516105ac919061202e565b908152602001604051809103902060010180546001816001161561010002031660029004905014610612576040517f08c379a00000000000000000000000000000000000000000000000000000000081526004016106099061222f565b60405180910390fd5b6000815111610656576040517f08c379a000000000000000000000000000000000000000000000000000000000815260040161064d9061228f565b60405180910390fd5b60405180608001604052803373ffffffffffffffffffffffffffffffffffffffff168152602001828152602001348152602001600073ffffffffffffffffffffffffffffffffffffffff168152506000826040516106b4919061202e565b908152602001604051809103902060008201518160000160006101000a81548173ffffffffffffffffffffffffffffffffffffffff021916908373ffffffffffffffffffffffffffffffffffffffff1602179055506020820151816001019080519060200190610725929190611678565b506040820151816002015560608201518160030160006101000a81548173ffffffffffffffffffffffffffffffffffffffff021916908373ffffffffffffffffffffffffffffffffffffffff16021790555090505060028190806001815401808255809150509060018203906000526020600020016000909192909190915090805190602001906107b79291906116f8565b50507fe5661d234ccbd6adf75706883ccc6d92026c89047f214314f745c6288641fc8a81346040516107ea92919061217a565b60405180910390a150565b60608060028054905060405190808252806020026020018201604052801561083757816020015b610824611778565b81526020019060019003908161081c5790505b50905060008090505b600280549050811015610aa75760606002828154811061085c57fe5b906000526020600020018054600181600116156101000203166002900480601f0160208091040260200160405190810160405280929190818152602001828054600181600116156101000203166002900480156108fa5780601f106108cf576101008083540402835291602001916108fa565b820191906000526020600020905b8154815290600101906020018083116108dd57829003601f168201915b50505050509050600081604051610911919061202e565b90815260200160405180910390206040518060800160405290816000820160009054906101000a900473ffffffffffffffffffffffffffffffffffffffff1673ffffffffffffffffffffffffffffffffffffffff1673ffffffffffffffffffffffffffffffffffffffff168152602001600182018054600181600116156101000203166002900480601f016020809104026020016040519081016040528092919081815260200182805460018160011615610100020316600290048015610a195780601f106109ee57610100808354040283529160200191610a19565b820191906000526020600020905b8154815290600101906020018083116109fc57829003601f168201915b50505050508152602001600282015481526020016003820160009054906101000a900473ffffffffffffffffffffffffffffffffffffffff1673ffffffffffffffffffffffffffffffffffffffff1673ffffffffffffffffffffffffffffffffffffffff1681525050838381518110610a8e57fe5b6020026020010181905250508080600101915050610840565b508091505090565b6000600280549050905090565b6001828051602081018201805184825260208301602085012081835280955050505050508181548110610aeb57fe5b906000526020600020906003020160009150915050806000018054600181600116156101000203166002900480601f016020809104026020016040519081016040528092919081815260200182805460018160011615610100020316600290048015610b985780601f10610b6d57610100808354040283529160200191610b98565b820191906000526020600020905b815481529060010190602001808311610b7b57829003601f168201915b505050505090806001018054600181600116156101000203166002900480601f016020809104026020016040519081016040528092919081815260200182805460018160011615610100020316600290048015610c365780601f10610c0b57610100808354040283529160200191610c36565b820191906000526020600020905b815481529060010190602001808311610c1957829003601f168201915b5050505050908060020160009054906101000a900473ffffffffffffffffffffffffffffffffffffffff16905083565b6060600182604051610c78919061202e565b9081526020016040518091039020805480602002602001604051908101604052809291908181526020016000905b82821015610e725783829060005260206000209060030201604051806060016040529081600082018054600181600116156101000203166002900480601f016020809104026020016040519081016040528092919081815260200182805460018160011615610100020316600290048015610d625780601f10610d3757610100808354040283529160200191610d62565b820191906000526020600020905b815481529060010190602001808311610d4557829003601f168201915b50505050508152602001600182018054600181600116156101000203166002900480601f016020809104026020016040519081016040528092919081815260200182805460018160011615610100020316600290048015610e045780601f10610dd957610100808354040283529160200191610e04565b820191906000526020600020905b815481529060010190602001808311610de757829003601f168201915b505050505081526020016002820160009054906101000a900473ffffffffffffffffffffffffffffffffffffffff1673ffffffffffffffffffffffffffffffffffffffff1673ffffffffffffffffffffffffffffffffffffffff168152505081526020019060010190610ca6565b505050509050919050565b6298968081565b60008083604051610e95919061202e565b908152602001604051809103902060000160009054906101000a900473ffffffffffffffffffffffffffffffffffffffff1673ffffffffffffffffffffffffffffffffffffffff163373ffffffffffffffffffffffffffffffffffffffff1614610f34576040517f08c379a0000000000000000000000000000000000000000000000000000000008152600401610f2b9061226f565b60405180910390fd5b60011515610ffb600085604051610f4b919061202e565b90815260200160405180910390206001018054600181600116156101000203166002900480601f016020809104026020016040519081016040528092919081815260200182805460018160011615610100020316600290048015610ff05780601f10610fc557610100808354040283529160200191610ff0565b820191906000526020600020905b815481529060010190602001808311610fd357829003601f168201915b50505050508561158b565b15151461103d576040517f08c379a00000000000000000000000000000000000000000000000000000000081526004016110349061224f565b60405180910390fd5b600073ffffffffffffffffffffffffffffffffffffffff16600084604051611065919061202e565b908152602001604051809103902060030160009054906101000a900473ffffffffffffffffffffffffffffffffffffffff1673ffffffffffffffffffffffffffffffffffffffff16146110ed576040517f08c379a00000000000000000000000000000000000000000000000000000000081526004016110e4906121ef565b60405180910390fd5b60606001846040516110ff919061202e565b9081526020016040518091039020805480602002602001604051908101604052809291908181526020016000905b828210156112f95783829060005260206000209060030201604051806060016040529081600082018054600181600116156101000203166002900480601f0160208091040260200160405190810160405280929190818152602001828054600181600116156101000203166002900480156111e95780601f106111be576101008083540402835291602001916111e9565b820191906000526020600020905b8154815290600101906020018083116111cc57829003601f168201915b50505050508152602001600182018054600181600116156101000203166002900480601f01602080910402602001604051908101604052809291908181526020018280546001816001161561010002031660029004801561128b5780601f106112605761010080835404028352916020019161128b565b820191906000526020600020905b81548152906001019060200180831161126e57829003601f168201915b505050505081526020016002820160009054906101000a900473ffffffffffffffffffffffffffffffffffffffff1673ffffffffffffffffffffffffffffffffffffffff1673ffffffffffffffffffffffffffffffffffffffff16815250508152602001906001019061112d565b50505050905060008090505b815181101561157e576113166117cc565b82828151811061132257fe5b6020026020010151905061133a81602001518661158b565b156115705760008160400151905080600088604051611359919061202e565b908152602001604051809103902060030160006101000a81548173ffffffffffffffffffffffffffffffffffffffff021916908373ffffffffffffffffffffffffffffffffffffffff160217905550600080886040516113b9919061202e565b9081526020016040518091039020600201549050600080896040516113de919061202e565b908152602001604051809103902060020181905550826040015173ffffffffffffffffffffffffffffffffffffffff166108fc829081150290604051600060405180830381858888f1935050505015801561143d573d6000803e3d6000fd5b5060008090505b6002805490508110156115265761150a6002828154811061146157fe5b906000526020600020018054600181600116156101000203166002900480601f0160208091040260200160405190810160405280929190818152602001828054600181600116156101000203166002900480156114ff5780601f106114d4576101008083540402835291602001916114ff565b820191906000526020600020905b8154815290600101906020018083116114e257829003601f168201915b50505050508a61158b565b1561151957611518816115e4565b5b8080600101915050611444565b507fe4d79c92daf98e057cc5ebae7db4082176c508a064235ff8cdfc0cb5bc7499e288888460405161155a939291906120f0565b60405180910390a1600195505050505050611585565b508080600101915050611305565b5060009150505b92915050565b60008160405160200161159e919061202e565b60405160208183030381529060405280519060200120836040516020016115c5919061202e565b6040516020818303038152906040528051906020012014905092915050565b600060028054905090508082106115fa57600080fd5b6002600182038154811061160a57fe5b906000526020600020016002838154811061162157fe5b90600052602060002001908054600181600116156101000203166002900461164a929190611803565b50600280548061165657fe5b600190038181906000526020600020016000611672919061188a565b90555050565b828054600181600116156101000203166002900490600052602060002090601f016020900481019282601f106116b957805160ff19168380011785556116e7565b828001600101855582156116e7579182015b828111156116e65782518255916020019190600101906116cb565b5b5090506116f491906118d2565b5090565b828054600181600116156101000203166002900490600052602060002090601f016020900481019282601f1061173957805160ff1916838001178555611767565b82800160010185558215611767579182015b8281111561176657825182559160200191906001019061174b565b5b50905061177491906118d2565b5090565b6040518060800160405280600073ffffffffffffffffffffffffffffffffffffffff1681526020016060815260200160008152602001600073ffffffffffffffffffffffffffffffffffffffff1681525090565b60405180606001604052806060815260200160608152602001600073ffffffffffffffffffffffffffffffffffffffff1681525090565b828054600181600116156101000203166002900490600052602060002090601f016020900481019282601f1061183c5780548555611879565b8280016001018555821561187957600052602060002091601f016020900482015b8281111561187857825482559160010191906001019061185d565b5b50905061188691906118d2565b5090565b50805460018160011615610100020316600290046000825580601f106118b057506118cf565b601f0160209004906000526020600020908101906118ce91906118d2565b5b50565b6118f491905b808211156118f05760008160009055506001016118d8565b5090565b90565b600082601f83011261190857600080fd5b813561191b611916826122f7565b6122ca565b9150808252602083016020830185838301111561193757600080fd5b611942838284612494565b50505092915050565b600082601f83011261195c57600080fd5b813561196f61196a82612323565b6122ca565b9150808252602083016020830185838301111561198b57600080fd5b611996838284612494565b50505092915050565b6000813590506119ae816124e7565b92915050565b6000602082840312156119c657600080fd5b600082013567ffffffffffffffff8111156119e057600080fd5b6119ec848285016118f7565b91505092915050565b600060208284031215611a0757600080fd5b600082013567ffffffffffffffff811115611a2157600080fd5b611a2d8482850161194b565b91505092915050565b60008060408385031215611a4957600080fd5b600083013567ffffffffffffffff811115611a6357600080fd5b611a6f8582860161194b565b925050602083013567ffffffffffffffff811115611a8c57600080fd5b611a988582860161194b565b9150509250929050565b60008060408385031215611ab557600080fd5b600083013567ffffffffffffffff811115611acf57600080fd5b611adb858286016118f7565b9250506020611aec8582860161199f565b9150509250929050565b6000611b028383611f56565b905092915050565b6000611b168383611fad565b905092915050565b611b278161245e565b82525050565b611b3681612416565b82525050565b611b4581612416565b82525050565b611b5481612404565b82525050565b611b6381612404565b82525050565b6000611b748261236f565b611b7e81856123b5565b935083602082028501611b908561234f565b8060005b85811015611bcc5784840389528151611bad8582611af6565b9450611bb88361239b565b925060208a01995050600181019050611b94565b50829750879550505050505092915050565b6000611be98261237a565b611bf381856123c6565b935083602082028501611c058561235f565b8060005b85811015611c415784840389528151611c228582611b0a565b9450611c2d836123a8565b925060208a01995050600181019050611c09565b50829750879550505050505092915050565b611c5c81612428565b82525050565b6000611c6d82612390565b611c7781856123e8565b9350611c878185602086016124a3565b611c90816124d6565b840191505092915050565b6000611ca682612390565b611cb081856123f9565b9350611cc08185602086016124a3565b80840191505092915050565b6000611cd782612385565b611ce181856123d7565b9350611cf18185602086016124a3565b611cfa816124d6565b840191505092915050565b6000611d1082612385565b611d1a81856123e8565b9350611d2a8185602086016124a3565b611d33816124d6565b840191505092915050565b6000611d4b6022836123e8565b91507f746865207461736b20686173206265656e206d61726b656420617320736f6c7660008301527f65640000000000000000000000000000000000000000000000000000000000006020830152604082019050919050565b6000611db16024836123e8565b91507f5461736b20646f6573206e6f74206861766520656e6f75676820636f6c6c617460008301527f6572616c000000000000000000000000000000000000000000000000000000006020830152604082019050919050565b6000611e17601e836123e8565b91507f746865207461736b20697320616c7265616479207265676973746572656400006000830152602082019050919050565b6000611e57600e836123e8565b91507f696e636f7272656374207461736b0000000000000000000000000000000000006000830152602082019050919050565b6000611e976033836123e8565b91507f6f6e6c7920746865207461736b20696e69746961746f722063616e206d61726b60008301527f20746865207461736b20617320736f6c766564000000000000000000000000006020830152604082019050919050565b6000611efd6023836123e8565b91507f746865207461736b2068617368206d757374206265206c61726765722074686160008301527f6e203000000000000000000000000000000000000000000000000000000000006020830152604082019050919050565b60006060830160008301518482036000860152611f738282611ccc565b91505060208301518482036020860152611f8d8282611ccc565b9150506040830151611fa26040860182611b2d565b508091505092915050565b6000608083016000830151611fc56000860182611b4b565b5060208301518482036020860152611fdd8282611ccc565b9150506040830151611ff26040860182612010565b5060608301516120056060860182611b4b565b508091505092915050565b61201981612454565b82525050565b61202881612454565b82525050565b600061203a8284611c9b565b915081905092915050565b600060808201905061205a6000830187611b5a565b818103602083015261206c8186611d05565b905061207b604083018561201f565b6120886060830184611b5a565b95945050505050565b600060208201905081810360008301526120ab8184611b69565b905092915050565b600060208201905081810360008301526120cd8184611bde565b905092915050565b60006020820190506120ea6000830184611c53565b92915050565b6000606082019050818103600083015261210a8186611c62565b9050818103602083015261211e8185611c62565b905061212d6040830184611b5a565b949350505050565b6000606082019050818103600083015261214f8186611c62565b905081810360208301526121638185611c62565b90506121726040830184611b1e565b949350505050565b600060408201905081810360008301526121948185611c62565b90506121a3602083018461201f565b9392505050565b600060608201905081810360008301526121c48186611d05565b905081810360208301526121d88185611d05565b90506121e76040830184611b3c565b949350505050565b6000602082019050818103600083015261220881611d3e565b9050919050565b6000602082019050818103600083015261222881611da4565b9050919050565b6000602082019050818103600083015261224881611e0a565b9050919050565b6000602082019050818103600083015261226881611e4a565b9050919050565b6000602082019050818103600083015261228881611e8a565b9050919050565b600060208201905081810360008301526122a881611ef0565b9050919050565b60006020820190506122c4600083018461201f565b92915050565b6000604051905081810181811067ffffffffffffffff821117156122ed57600080fd5b8060405250919050565b600067ffffffffffffffff82111561230e57600080fd5b601f19601f8301169050602081019050919050565b600067ffffffffffffffff82111561233a57600080fd5b601f19601f8301169050602081019050919050565b6000819050602082019050919050565b6000819050602082019050919050565b600081519050919050565b600081519050919050565b600081519050919050565b600081519050919050565b6000602082019050919050565b6000602082019050919050565b600082825260208201905092915050565b600082825260208201905092915050565b600082825260208201905092915050565b600082825260208201905092915050565b600081905092915050565b600061240f82612434565b9050919050565b600061242182612434565b9050919050565b60008115159050919050565b600073ffffffffffffffffffffffffffffffffffffffff82169050919050565b6000819050919050565b600061246982612470565b9050919050565b600061247b82612482565b9050919050565b600061248d82612434565b9050919050565b82818337600083830152505050565b60005b838110156124c15780820151818401526020810190506124a6565b838111156124d0576000848401525b50505050565b6000601f19601f8301169050919050565b6124f081612454565b81146124fb57600080fd5b5056fea365627a7a72315820c40f13709c9679a341b15f5c2f120ed731c046e9fabe5268692883c3474a05086c6578706572696d656e74616cf564736f6c63430005100040",
  "source": "//  Theta Edge Marketplace\n//\n//  Created by RHVT on 01/Mar/2021.\n//  Copyright  2021 R. All rights reserved.\n//\n////////////////////////////////////////////////////////////////////////\n// This program is free software: you can redistribute it and/or modify\n// it under the terms of the GNU General Public License as published by\n// the Free Software Foundation, version 3 or later.\n//\n// This program is distributed in the hope that it will be useful, but\n// WITHOUT ANY WARRANTY; without even the implied warranty of\n// MERCHANTABILITY or FITNESS FOR A PARTICULAR PURPOSE. See the GNU\n// General Public License for more details.\n//\n// You should have received a copy of the GNU General Public License\n// along with this program. If not, see <http://www.gnu.org/licenses/>.\n////////////////////////////////////////////////////////////////////////\n\n// SPDX-License-Identifier: GFDL-1.3-or-later\n// pragma solidity ^0.7.1;\npragma solidity ^0.5.16;\npragma experimental ABIEncoderV2;\n\n\ncontract DistributedTask {\n    struct Task {\n        address taskInitiator;\n        string hash;\n        uint reward;\n        address solver;\n    }\n\n    struct Solution {\n        string taskHash;\n        string solutionHash;\n        address payable solver;\n    }\n\n    uint public constant MIN_COLLATERAL = 10000000;\n    mapping(string => Task) public taskMap;\n    mapping(string => Solution[]) public solutionMap;\n    string[] internal taskList;\n\n    event CommitTask(string taskHash, uint rewardAmount);\n    event CommitSolution(string taskHash, string solutionHash, address solver);\n    event MarkSolutionAsSolved(string taskHash, string validSolutionHash, address solver);\n\n    function commitTaskHash(string memory taskHash) public payable {\n        // Disincentivize malicious Task Initiators\n        require(msg.value >= MIN_COLLATERAL, \"Task does not have enough collateral\");\n        require(bytes(taskMap[taskHash].hash).length == 0, \"the task is already registered\");\n        require(bytes(taskHash).length > 0, \"the task hash must be larger than 0\");\n\n        // Record the task on the blockchain\n        taskMap[taskHash] = Task({\n            taskInitiator: msg.sender,\n            hash: taskHash,\n            // msg.value amount of TFuel will be automatically transfer to the contract solver: address(0x0)\n            reward: msg.value,\n            solver: address(0x0)\n        });\n        taskList.push(taskHash);\n        emit CommitTask(taskHash, msg.value);\n    }\n\n    function commitSolutionHash(string memory taskHash, string memory solutionHash) public {\n        require(taskMap[taskHash].solver == address(0x0), \"the task has been marked as solved\");\n        solutionMap[taskHash].push(Solution({\n            taskHash: taskHash,\n            solutionHash: solutionHash,\n            solver: msg.sender\n        }));\n\n        emit CommitSolution(taskHash, solutionHash, msg.sender);\n    }\n\n    function markTaskSolved(string memory taskHash, string memory validSolutionHash) public returns (bool) {\n        require(msg.sender == taskMap[taskHash].taskInitiator, \"only the task initiator can mark the task as solved\");\n        require(compareStrings(taskMap[taskHash].hash, taskHash) == true, \"incorrect task\");\n        require(taskMap[taskHash].solver == address(0x0), \"the task has been marked as solved\");\n\n        Solution[] memory solutions = solutionMap[taskHash];\n        for (uint i = 0; i < solutions.length; i++) {\n            Solution memory solution = solutions[i];\n            if (compareStrings(solution.solutionHash, validSolutionHash)) {\n            // found the first solver that committed the valid solution\n                address solver = solution.solver;\n                taskMap[taskHash].solver = solver; // mark the task as solved\n                uint reward = taskMap[taskHash].reward;\n                taskMap[taskHash].reward = 0;\n                solution.solver.transfer(reward); // transfer the TFUEL reward to the solver\n\n                for (uint j = 0; j < taskList.length; j++) {\n                    if (compareStrings(taskList[j], taskHash)) {\n                        removeTaskAtIndex(j);\n                    }\n                }\n\n                emit MarkSolutionAsSolved(taskHash, validSolutionHash, solver);\n                return true;\n            }\n        }\n\n        return false;\n    }\n\n    function retrieveTaskList() public view returns(Task[] memory) {\n        Task[] memory elems = new Task[](taskList.length);\n        for (uint i = 0; i < taskList.length; i++) {\n            string memory hashStr = taskList[i];\n            elems[i] = taskMap[hashStr];\n        }\n\n        return elems;\n    }\n\n    function activeTasks() public view returns(uint256) {\n        return taskList.length;\n    }\n\n    function retrieveSolutionList(string memory hashStr) public view returns(Solution[] memory) {\n        return solutionMap[hashStr];\n    }\n\n    function compareStrings(string memory a, string memory b) internal pure returns (bool) {\n        return (keccak256(abi.encodePacked((a))) == keccak256(abi.encodePacked((b))));\n    }\n\n    function removeTaskAtIndex(uint index) internal {\n        uint tll = taskList.length;\n        require(index < tll);\n        taskList[index] = taskList[tll - 1];\n        taskList.pop();\n    }\n}\n",
  "sourcePath": "/Users/rhvt/Dev/Theta/TECM/contracts/DistributedTask.sol",
  "compiler": {
    "name": "solc",
    "version": "0.5.16+commit.9c3226ce.Emscripten.clang"
  },
  "schemaVersion": "3.3.4",
  "updatedAt": "2021-03-31T06:18:36.595Z",
  "networkType": "ethereum",
  "devdoc": {
    "methods": {}
  },
  "userdoc": {
    "methods": {}
  }
}