{
  "contractName": "DistributedTask",
  "abi": [
    {
      "anonymous": false,
      "inputs": [
        {
          "indexed": false,
          "internalType": "string",
          "name": "taskHash",
          "type": "string"
        },
        {
          "indexed": false,
          "internalType": "string",
          "name": "solutionHash",
          "type": "string"
        },
        {
          "indexed": false,
          "internalType": "address",
          "name": "solver",
          "type": "address"
        }
      ],
      "name": "CommitSolution",
      "type": "event"
    },
    {
      "anonymous": false,
      "inputs": [
        {
          "indexed": false,
          "internalType": "string",
          "name": "taskHash",
          "type": "string"
        },
        {
          "indexed": false,
          "internalType": "uint256",
          "name": "rewardAmount",
          "type": "uint256"
        }
      ],
      "name": "CommitTask",
      "type": "event"
    },
    {
      "anonymous": false,
      "inputs": [
        {
          "indexed": false,
          "internalType": "string",
          "name": "taskHash",
          "type": "string"
        },
        {
          "indexed": false,
          "internalType": "string",
          "name": "validSolutionHash",
          "type": "string"
        },
        {
          "indexed": false,
          "internalType": "address",
          "name": "solver",
          "type": "address"
        }
      ],
      "name": "MarkSolutionAsSolved",
      "type": "event"
    },
    {
      "constant": true,
      "inputs": [
        {
          "internalType": "string",
          "name": "",
          "type": "string"
        },
        {
          "internalType": "uint256",
          "name": "",
          "type": "uint256"
        }
      ],
      "name": "solutionMap",
      "outputs": [
        {
          "internalType": "string",
          "name": "taskHash",
          "type": "string"
        },
        {
          "internalType": "string",
          "name": "solutionHash",
          "type": "string"
        },
        {
          "internalType": "address payable",
          "name": "solver",
          "type": "address"
        }
      ],
      "payable": false,
      "stateMutability": "view",
      "type": "function"
    },
    {
      "constant": true,
      "inputs": [
        {
          "internalType": "uint256",
          "name": "",
          "type": "uint256"
        }
      ],
      "name": "taskList",
      "outputs": [
        {
          "internalType": "string",
          "name": "",
          "type": "string"
        }
      ],
      "payable": false,
      "stateMutability": "view",
      "type": "function"
    },
    {
      "constant": true,
      "inputs": [
        {
          "internalType": "string",
          "name": "",
          "type": "string"
        }
      ],
      "name": "taskMap",
      "outputs": [
        {
          "internalType": "address",
          "name": "taskInitiator",
          "type": "address"
        },
        {
          "internalType": "string",
          "name": "hash",
          "type": "string"
        },
        {
          "internalType": "uint256",
          "name": "reward",
          "type": "uint256"
        },
        {
          "internalType": "address",
          "name": "solver",
          "type": "address"
        }
      ],
      "payable": false,
      "stateMutability": "view",
      "type": "function"
    },
    {
      "constant": false,
      "inputs": [
        {
          "internalType": "string",
          "name": "taskHash",
          "type": "string"
        }
      ],
      "name": "commitTaskHash",
      "outputs": [],
      "payable": true,
      "stateMutability": "payable",
      "type": "function"
    },
    {
      "constant": false,
      "inputs": [
        {
          "internalType": "string",
          "name": "taskHash",
          "type": "string"
        },
        {
          "internalType": "string",
          "name": "solutionHash",
          "type": "string"
        }
      ],
      "name": "commitSolutionHash",
      "outputs": [],
      "payable": false,
      "stateMutability": "nonpayable",
      "type": "function"
    },
    {
      "constant": false,
      "inputs": [
        {
          "internalType": "string",
          "name": "taskHash",
          "type": "string"
        },
        {
          "internalType": "string",
          "name": "validSolutionHash",
          "type": "string"
        }
      ],
      "name": "markTaskSolved",
      "outputs": [
        {
          "internalType": "bool",
          "name": "",
          "type": "bool"
        }
      ],
      "payable": false,
      "stateMutability": "nonpayable",
      "type": "function"
    },
    {
      "constant": true,
      "inputs": [],
      "name": "retrieveTaskList",
      "outputs": [
        {
          "internalType": "string[]",
          "name": "",
          "type": "string[]"
        }
      ],
      "payable": false,
      "stateMutability": "view",
      "type": "function"
    },
    {
      "constant": true,
      "inputs": [],
      "name": "activeTasks",
      "outputs": [
        {
          "internalType": "uint256",
          "name": "",
          "type": "uint256"
        }
      ],
      "payable": false,
      "stateMutability": "view",
      "type": "function"
    }
  ],
  "bytecode": "0x608060405234801561001057600080fd5b50612001806100206000396000f3fe60806040526004361061007b5760003560e01c8063c3712e521161004e578063c3712e5214610142578063d03bbd381461016d578063f04bb4ab14610198578063fc482e40146101d75761007b565b80631412aca1146100805780632a1c52a5146100c05780634171f1b4146100fd578063c23470f714610126575b600080fd5b34801561008c57600080fd5b506100a760048036036100a291908101906115f4565b610214565b6040516100b79493929190611b3e565b60405180910390f35b3480156100cc57600080fd5b506100e760048036036100e29190810190611736565b610332565b6040516100f49190611bc7565b60405180910390f35b34801561010957600080fd5b50610124600480360361011f9190810190611676565b6103eb565b005b610140600480360361013b9190810190611635565b6105d8565b005b34801561014e57600080fd5b50610157610878565b6040516101649190611b8a565b60405180910390f35b34801561017957600080fd5b50610182610961565b60405161018f9190611da8565b60405180910390f35b3480156101a457600080fd5b506101bf60048036036101ba91908101906116e2565b61096e565b6040516101ce93929190611ca3565b60405180910390f35b3480156101e357600080fd5b506101fe60048036036101f99190810190611676565b610b18565b60405161020b9190611bac565b60405180910390f35b6000818051602081018201805184825260208301602085012081835280955050505050506000915090508060000160009054906101000a900473ffffffffffffffffffffffffffffffffffffffff1690806001018054600181600116156101000203166002900480601f0160208091040260200160405190810160405280929190818152602001828054600181600116156101000203166002900480156102fc5780601f106102d1576101008083540402835291602001916102fc565b820191906000526020600020905b8154815290600101906020018083116102df57829003601f168201915b5050505050908060020154908060030160009054906101000a900473ffffffffffffffffffffffffffffffffffffffff16905084565b6002818154811061033f57fe5b906000526020600020016000915090508054600181600116156101000203166002900480601f0160208091040260200160405190810160405280929190818152602001828054600181600116156101000203166002900480156103e35780601f106103b8576101008083540402835291602001916103e3565b820191906000526020600020905b8154815290600101906020018083116103c657829003601f168201915b505050505081565b600073ffffffffffffffffffffffffffffffffffffffff166000836040516104139190611b27565b908152602001604051809103902060030160009054906101000a900473ffffffffffffffffffffffffffffffffffffffff1673ffffffffffffffffffffffffffffffffffffffff161461049b576040517f08c379a000000000000000000000000000000000000000000000000000000000815260040161049290611ce8565b60405180910390fd5b6001826040516104ab9190611b27565b908152602001604051809103902060405180606001604052808481526020018381526020013373ffffffffffffffffffffffffffffffffffffffff1681525090806001815401808255809150509060018203906000526020600020906003020160009091929091909150600082015181600001908051906020019061053192919061130c565b50602082015181600101908051906020019061054e92919061130c565b5060408201518160020160006101000a81548173ffffffffffffffffffffffffffffffffffffffff021916908373ffffffffffffffffffffffffffffffffffffffff1602179055505050507f092828b6dfeac14b33a026ecd307d5d23c7b7ddb01134cf980954b3f3e27f4d58282336040516105cc93929190611c2e565b60405180910390a15050565b6298968034101561061e576040517f08c379a000000000000000000000000000000000000000000000000000000000815260040161061590611d08565b60405180910390fd5b6000808260405161062f9190611b27565b908152602001604051809103902060010180546001816001161561010002031660029004905014610695576040517f08c379a000000000000000000000000000000000000000000000000000000000815260040161068c90611d28565b60405180910390fd5b60008151116106d9576040517f08c379a00000000000000000000000000000000000000000000000000000000081526004016106d090611d88565b60405180910390fd5b60405180608001604052803373ffffffffffffffffffffffffffffffffffffffff168152602001828152602001348152602001600073ffffffffffffffffffffffffffffffffffffffff168152506000826040516107379190611b27565b908152602001604051809103902060008201518160000160006101000a81548173ffffffffffffffffffffffffffffffffffffffff021916908373ffffffffffffffffffffffffffffffffffffffff16021790555060208201518160010190805190602001906107a892919061130c565b506040820151816002015560608201518160030160006101000a81548173ffffffffffffffffffffffffffffffffffffffff021916908373ffffffffffffffffffffffffffffffffffffffff160217905550905050600281908060018154018082558091505090600182039060005260206000200160009091929091909150908051906020019061083a92919061138c565b50507fe5661d234ccbd6adf75706883ccc6d92026c89047f214314f745c6288641fc8a813460405161086d929190611c73565b60405180910390a150565b60606002805480602002602001604051908101604052809291908181526020016000905b82821015610958578382906000526020600020018054600181600116156101000203166002900480601f0160208091040260200160405190810160405280929190818152602001828054600181600116156101000203166002900480156109445780601f1061091957610100808354040283529160200191610944565b820191906000526020600020905b81548152906001019060200180831161092757829003601f168201915b50505050508152602001906001019061089c565b50505050905090565b6000600280549050905090565b600182805160208101820180518482526020830160208501208183528095505050505050818154811061099d57fe5b906000526020600020906003020160009150915050806000018054600181600116156101000203166002900480601f016020809104026020016040519081016040528092919081815260200182805460018160011615610100020316600290048015610a4a5780601f10610a1f57610100808354040283529160200191610a4a565b820191906000526020600020905b815481529060010190602001808311610a2d57829003601f168201915b505050505090806001018054600181600116156101000203166002900480601f016020809104026020016040519081016040528092919081815260200182805460018160011615610100020316600290048015610ae85780601f10610abd57610100808354040283529160200191610ae8565b820191906000526020600020905b815481529060010190602001808311610acb57829003601f168201915b5050505050908060020160009054906101000a900473ffffffffffffffffffffffffffffffffffffffff16905083565b60008083604051610b299190611b27565b908152602001604051809103902060000160009054906101000a900473ffffffffffffffffffffffffffffffffffffffff1673ffffffffffffffffffffffffffffffffffffffff163373ffffffffffffffffffffffffffffffffffffffff1614610bc8576040517f08c379a0000000000000000000000000000000000000000000000000000000008152600401610bbf90611d68565b60405180910390fd5b60011515610c8f600085604051610bdf9190611b27565b90815260200160405180910390206001018054600181600116156101000203166002900480601f016020809104026020016040519081016040528092919081815260200182805460018160011615610100020316600290048015610c845780601f10610c5957610100808354040283529160200191610c84565b820191906000526020600020905b815481529060010190602001808311610c6757829003601f168201915b50505050508561121f565b151514610cd1576040517f08c379a0000000000000000000000000000000000000000000000000000000008152600401610cc890611d48565b60405180910390fd5b600073ffffffffffffffffffffffffffffffffffffffff16600084604051610cf99190611b27565b908152602001604051809103902060030160009054906101000a900473ffffffffffffffffffffffffffffffffffffffff1673ffffffffffffffffffffffffffffffffffffffff1614610d81576040517f08c379a0000000000000000000000000000000000000000000000000000000008152600401610d7890611ce8565b60405180910390fd5b6060600184604051610d939190611b27565b9081526020016040518091039020805480602002602001604051908101604052809291908181526020016000905b82821015610f8d5783829060005260206000209060030201604051806060016040529081600082018054600181600116156101000203166002900480601f016020809104026020016040519081016040528092919081815260200182805460018160011615610100020316600290048015610e7d5780601f10610e5257610100808354040283529160200191610e7d565b820191906000526020600020905b815481529060010190602001808311610e6057829003601f168201915b50505050508152602001600182018054600181600116156101000203166002900480601f016020809104026020016040519081016040528092919081815260200182805460018160011615610100020316600290048015610f1f5780601f10610ef457610100808354040283529160200191610f1f565b820191906000526020600020905b815481529060010190602001808311610f0257829003601f168201915b505050505081526020016002820160009054906101000a900473ffffffffffffffffffffffffffffffffffffffff1673ffffffffffffffffffffffffffffffffffffffff1673ffffffffffffffffffffffffffffffffffffffff168152505081526020019060010190610dc1565b50505050905060008090505b815181101561121257610faa61140c565b828281518110610fb657fe5b60200260200101519050610fce81602001518661121f565b156112045760008160400151905080600088604051610fed9190611b27565b908152602001604051809103902060030160006101000a81548173ffffffffffffffffffffffffffffffffffffffff021916908373ffffffffffffffffffffffffffffffffffffffff1602179055506000808860405161104d9190611b27565b9081526020016040518091039020600201549050600080896040516110729190611b27565b908152602001604051809103902060020181905550826040015173ffffffffffffffffffffffffffffffffffffffff166108fc829081150290604051600060405180830381858888f193505050501580156110d1573d6000803e3d6000fd5b5060008090505b6002805490508110156111ba5761119e600282815481106110f557fe5b906000526020600020018054600181600116156101000203166002900480601f0160208091040260200160405190810160405280929190818152602001828054600181600116156101000203166002900480156111935780601f1061116857610100808354040283529160200191611193565b820191906000526020600020905b81548152906001019060200180831161117657829003601f168201915b50505050508a61121f565b156111ad576111ac81611278565b5b80806001019150506110d8565b507fe4d79c92daf98e057cc5ebae7db4082176c508a064235ff8cdfc0cb5bc7499e28888846040516111ee93929190611be9565b60405180910390a1600195505050505050611219565b508080600101915050610f99565b5060009150505b92915050565b6000816040516020016112329190611b27565b60405160208183030381529060405280519060200120836040516020016112599190611b27565b6040516020818303038152906040528051906020012014905092915050565b6000600280549050905080821061128e57600080fd5b6002600182038154811061129e57fe5b90600052602060002001600283815481106112b557fe5b9060005260206000200190805460018160011615610100020316600290046112de929190611443565b5060028054806112ea57fe5b60019003818190600052602060002001600061130691906114ca565b90555050565b828054600181600116156101000203166002900490600052602060002090601f016020900481019282601f1061134d57805160ff191683800117855561137b565b8280016001018555821561137b579182015b8281111561137a57825182559160200191906001019061135f565b5b5090506113889190611512565b5090565b828054600181600116156101000203166002900490600052602060002090601f016020900481019282601f106113cd57805160ff19168380011785556113fb565b828001600101855582156113fb579182015b828111156113fa5782518255916020019190600101906113df565b5b5090506114089190611512565b5090565b60405180606001604052806060815260200160608152602001600073ffffffffffffffffffffffffffffffffffffffff1681525090565b828054600181600116156101000203166002900490600052602060002090601f016020900481019282601f1061147c57805485556114b9565b828001600101855582156114b957600052602060002091601f016020900482015b828111156114b857825482559160010191906001019061149d565b5b5090506114c69190611512565b5090565b50805460018160011615610100020316600290046000825580601f106114f0575061150f565b601f01602090049060005260206000209081019061150e9190611512565b5b50565b61153491905b80821115611530576000816000905550600101611518565b5090565b90565b600082601f83011261154857600080fd5b813561155b61155682611df0565b611dc3565b9150808252602083016020830185838301111561157757600080fd5b611582838284611f54565b50505092915050565b600082601f83011261159c57600080fd5b81356115af6115aa82611e1c565b611dc3565b915080825260208301602083018583830111156115cb57600080fd5b6115d6838284611f54565b50505092915050565b6000813590506115ee81611fa7565b92915050565b60006020828403121561160657600080fd5b600082013567ffffffffffffffff81111561162057600080fd5b61162c84828501611537565b91505092915050565b60006020828403121561164757600080fd5b600082013567ffffffffffffffff81111561166157600080fd5b61166d8482850161158b565b91505092915050565b6000806040838503121561168957600080fd5b600083013567ffffffffffffffff8111156116a357600080fd5b6116af8582860161158b565b925050602083013567ffffffffffffffff8111156116cc57600080fd5b6116d88582860161158b565b9150509250929050565b600080604083850312156116f557600080fd5b600083013567ffffffffffffffff81111561170f57600080fd5b61171b85828601611537565b925050602061172c858286016115df565b9150509250929050565b60006020828403121561174857600080fd5b6000611756848285016115df565b91505092915050565b600061176b838361188e565b905092915050565b61177c81611f1e565b82525050565b61178b81611ed6565b82525050565b61179a81611ec4565b82525050565b60006117ab82611e58565b6117b58185611e86565b9350836020820285016117c785611e48565b8060005b8581101561180357848403895281516117e4858261175f565b94506117ef83611e79565b925060208a019950506001810190506117cb565b50829750879550505050505092915050565b61181e81611ee8565b82525050565b600061182f82611e6e565b6118398185611ea8565b9350611849818560208601611f63565b61185281611f96565b840191505092915050565b600061186882611e6e565b6118728185611eb9565b9350611882818560208601611f63565b80840191505092915050565b600061189982611e63565b6118a38185611e97565b93506118b3818560208601611f63565b6118bc81611f96565b840191505092915050565b60006118d282611e63565b6118dc8185611ea8565b93506118ec818560208601611f63565b6118f581611f96565b840191505092915050565b600061190d602283611ea8565b91507f746865207461736b20686173206265656e206d61726b656420617320736f6c7660008301527f65640000000000000000000000000000000000000000000000000000000000006020830152604082019050919050565b6000611973602483611ea8565b91507f5461736b20646f6573206e6f74206861766520656e6f75676820636f6c6c617460008301527f6572616c000000000000000000000000000000000000000000000000000000006020830152604082019050919050565b60006119d9601e83611ea8565b91507f746865207461736b20697320616c7265616479207265676973746572656400006000830152602082019050919050565b6000611a19600e83611ea8565b91507f696e636f7272656374207461736b0000000000000000000000000000000000006000830152602082019050919050565b6000611a59603383611ea8565b91507f6f6e6c7920746865207461736b20696e69746961746f722063616e206d61726b60008301527f20746865207461736b20617320736f6c766564000000000000000000000000006020830152604082019050919050565b6000611abf602383611ea8565b91507f746865207461736b2068617368206d757374206265206c61726765722074686160008301527f6e203000000000000000000000000000000000000000000000000000000000006020830152604082019050919050565b611b2181611f14565b82525050565b6000611b33828461185d565b915081905092915050565b6000608082019050611b536000830187611791565b8181036020830152611b6581866118c7565b9050611b746040830185611b18565b611b816060830184611791565b95945050505050565b60006020820190508181036000830152611ba481846117a0565b905092915050565b6000602082019050611bc16000830184611815565b92915050565b60006020820190508181036000830152611be181846118c7565b905092915050565b60006060820190508181036000830152611c038186611824565b90508181036020830152611c178185611824565b9050611c266040830184611791565b949350505050565b60006060820190508181036000830152611c488186611824565b90508181036020830152611c5c8185611824565b9050611c6b6040830184611773565b949350505050565b60006040820190508181036000830152611c8d8185611824565b9050611c9c6020830184611b18565b9392505050565b60006060820190508181036000830152611cbd81866118c7565b90508181036020830152611cd181856118c7565b9050611ce06040830184611782565b949350505050565b60006020820190508181036000830152611d0181611900565b9050919050565b60006020820190508181036000830152611d2181611966565b9050919050565b60006020820190508181036000830152611d41816119cc565b9050919050565b60006020820190508181036000830152611d6181611a0c565b9050919050565b60006020820190508181036000830152611d8181611a4c565b9050919050565b60006020820190508181036000830152611da181611ab2565b9050919050565b6000602082019050611dbd6000830184611b18565b92915050565b6000604051905081810181811067ffffffffffffffff82111715611de657600080fd5b8060405250919050565b600067ffffffffffffffff821115611e0757600080fd5b601f19601f8301169050602081019050919050565b600067ffffffffffffffff821115611e3357600080fd5b601f19601f8301169050602081019050919050565b6000819050602082019050919050565b600081519050919050565b600081519050919050565b600081519050919050565b6000602082019050919050565b600082825260208201905092915050565b600082825260208201905092915050565b600082825260208201905092915050565b600081905092915050565b6000611ecf82611ef4565b9050919050565b6000611ee182611ef4565b9050919050565b60008115159050919050565b600073ffffffffffffffffffffffffffffffffffffffff82169050919050565b6000819050919050565b6000611f2982611f30565b9050919050565b6000611f3b82611f42565b9050919050565b6000611f4d82611ef4565b9050919050565b82818337600083830152505050565b60005b83811015611f81578082015181840152602081019050611f66565b83811115611f90576000848401525b50505050565b6000601f19601f8301169050919050565b611fb081611f14565b8114611fbb57600080fd5b5056fea365627a7a72315820c4f2ce60aa4613a9c77ef57b82aeda241f71c77e84c07539eb9d4262c3a3d5226c6578706572696d656e74616cf564736f6c63430005100040",
  "source": "//  Theta Edge Marketplace\n//\n//  Created by RHVT on 01/Mar/2021.\n//  Copyright  2021 R. All rights reserved.\n//\n////////////////////////////////////////////////////////////////////////\n// This program is free software: you can redistribute it and/or modify\n// it under the terms of the GNU General Public License as published by\n// the Free Software Foundation, version 3 or later.\n//\n// This program is distributed in the hope that it will be useful, but\n// WITHOUT ANY WARRANTY; without even the implied warranty of\n// MERCHANTABILITY or FITNESS FOR A PARTICULAR PURPOSE. See the GNU\n// General Public License for more details.\n//\n// You should have received a copy of the GNU General Public License\n// along with this program. If not, see <http://www.gnu.org/licenses/>.\n////////////////////////////////////////////////////////////////////////\n\n// SPDX-License-Identifier: GFDL-1.3-or-later\n// pragma solidity ^0.7.1;\npragma solidity ^0.5.16;\npragma experimental ABIEncoderV2;\n\n\ncontract DistributedTask {\n    struct Task {\n        address taskInitiator;\n        string hash;\n        uint reward;\n        address solver;\n    }\n\n    struct Solution {\n        string taskHash;\n        string solutionHash;\n        address payable solver;\n    }\n\n    uint constant MIN_COLLATERAL = 10000000;\n    mapping(string => Task) public taskMap;\n    mapping(string => Solution[]) public solutionMap;\n    string[] public taskList;\n\n\n    event CommitTask(string taskHash, uint rewardAmount);\n    event CommitSolution(string taskHash, string solutionHash, address solver);\n    event MarkSolutionAsSolved(string taskHash, string validSolutionHash, address solver);\n\n    function commitTaskHash(string memory taskHash) public payable {\n        // Disincentivize malicious Task Initiators\n        require(msg.value >= MIN_COLLATERAL, \"Task does not have enough collateral\");\n        require(bytes(taskMap[taskHash].hash).length == 0, \"the task is already registered\");\n        require(bytes(taskHash).length > 0, \"the task hash must be larger than 0\");\n\n        // Record the task on the blockchain\n        taskMap[taskHash] = Task({\n            taskInitiator: msg.sender,\n            hash: taskHash,\n            // msg.value amount of TFuel will be automatically transfer to the contract solver: address(0x0)\n            reward: msg.value,\n            solver: address(0x0)\n        });\n        taskList.push(taskHash);\n        emit CommitTask(taskHash, msg.value);\n    }\n\n    function commitSolutionHash(string memory taskHash, string memory solutionHash) public {\n        require(taskMap[taskHash].solver == address(0x0), \"the task has been marked as solved\");\n        solutionMap[taskHash].push(Solution({\n            taskHash: taskHash,\n            solutionHash: solutionHash,\n            solver: msg.sender\n        }));\n\n        emit CommitSolution(taskHash, solutionHash, msg.sender);\n    }\n\n    function markTaskSolved(string memory taskHash, string memory validSolutionHash) public returns (bool) {\n        require(msg.sender == taskMap[taskHash].taskInitiator, \"only the task initiator can mark the task as solved\");\n        require(compareStrings(taskMap[taskHash].hash, taskHash) == true, \"incorrect task\");\n        require(taskMap[taskHash].solver == address(0x0), \"the task has been marked as solved\");\n\n        Solution[] memory solutions = solutionMap[taskHash];\n        for (uint i = 0; i < solutions.length; i++) {\n            Solution memory solution = solutions[i];\n            if (compareStrings(solution.solutionHash, validSolutionHash)) {\n            // found the first solver that committed the valid solution\n                address solver = solution.solver;\n                taskMap[taskHash].solver = solver; // mark the task as solved\n                uint reward = taskMap[taskHash].reward;\n                taskMap[taskHash].reward = 0;\n                solution.solver.transfer(reward); // transfer the TFUEL reward to the solver\n\n                for (uint j = 0; j < taskList.length; j++) {\n                    if (compareStrings(taskList[j], taskHash)) {\n                        removeTaskAtIndex(j);\n                    }\n                }\n\n                emit MarkSolutionAsSolved(taskHash, validSolutionHash, solver);\n                return true;\n            }\n        }\n\n        return false;\n    }\n\n    function retrieveTaskList() public view returns(string[] memory) {\n        return taskList;\n    }\n\n    function activeTasks() public view returns(uint256) {\n        return taskList.length;\n    }\n\n    function compareStrings(string memory a, string memory b) internal pure returns (bool) {\n        return (keccak256(abi.encodePacked((a))) == keccak256(abi.encodePacked((b))));\n    }\n\n    function removeTaskAtIndex(uint index) internal {\n        uint tll = taskList.length;\n        require(index < tll);\n        taskList[index] = taskList[tll - 1];\n        taskList.pop();\n    }\n}\n",
  "sourcePath": "/Users/rhvt/Dev/Theta/TECM/contracts/DistributedTask.sol",
  "compiler": {
    "name": "solc",
    "version": "0.5.16+commit.9c3226ce.Emscripten.clang"
  },
  "schemaVersion": "3.3.4",
  "updatedAt": "2021-03-31T02:28:08.511Z",
  "networkType": "ethereum",
  "devdoc": {
    "methods": {}
  },
  "userdoc": {
    "methods": {}
  }
}